:020000020000FC
:1000000038C70000FEC60000FDC60000FCC60000A8
:10001000FBC60000FAC60000F9C60000F8C60000E2
:10002000F7C60000F6C60000F5C60000F4C60000E2
:10003000F3C60000FFC60000FEC60000FDC60000BB
:10004000FCC6000000C70000FFC6000000C700009B
:10005000FFC60000FEC60000FDC60000FCC6000092
:10006000FBC60000FAC60000F9C60000F8C6000092
:10007000F7C60000F6C60000F5C60000F6C6000090
:10008000F5C60000F4C60000F3C62ED100E80E94B9
:100090003E05D7E0C4EA14E10E9425090E94971AA0
:1000A00023D100E0402E502E602EB49B62C000E2AF
:1000B0000093DE070093DF070093F0070093F1073A
:1000C0000093F2070093F3070093040800930508D8
:1000D0000E940003969A0E942F0166D004E946D13F
:1000E000D7E0CEED14E10E94250900EC3FD1D7E026
:1000F000C2EF14E10E94250960E06E31F0F30E9426
:10010000C0041F3E61F01D3F153F173EB1F0193F7F
:100110001B3E09F11F3769F1783759F1D9CF439464
:1001200085E0481611F480E0482ED2CF4A94842D01
:10013000813010F088E0482ECBCF639483E06816BE
:1001400011F481E0682EC4CF6A94862D813010F0BE
:1001500083E0682EBDCF539486E0581611F480E0FA
:10016000582EB6CF5A94852D813010F083E0682E3A
:10017000AFCF0E94F202969812E1242DC8D413E169
:10018000252DC5D414E1262DC2D419E920E0BFD411
:100190000E94540A20E0F22E0E941D0960E064369D
:1001A000F0F30E9416030895D7E0C4EFF9E2E0E00F
:1001B00000E1069DE00D00E1C89531960882219688
:1001C0000A95D1F7062D003079F4D7E0C0EEF9E2B8
:1001D000E0E000E1069DE00D00E1C895319608825F
:1001E00021960A95D1F70895D7E0CCEEF8E2E0E049
:1001F00004E0049DE00D04E0C89531960882219644
:100200000A95D1F7D7E0C0EE262D223019F4F8E296
:10021000E0ED02C0F8E2E0EE22E0029FE00D09E02E
:10022000C8953196088221960A95D1F7D7E0C9EE94
:10023000F8E2E0E204E0059DE00D04E0C8953196A7
:10024000088221960A95D1F7089512E157D4422EDB
:1002500013E154D4522E14E151D4622E0895ACE827
:1002600026E00E943C018093C80A0E9490052092DB
:10027000DE073092DF0708958827112400EE020F71
:1002800007B907ED06B99AEFE5D79AEFE3D706B1BC
:10029000000006FBC6F3AA9529F015B1111E88F7D8
:1002A0008395EFCF089580930F0200E300930F032F
:1002B000869518F405E300930F0332D420920C03C3
:1002C00030920D0320910F0290E56CD440FF07C0DF
:1002D0002DE220930C0320930D0320930F03089528
:1002E00000E007B906B9089584E69AEFB3D78A9576
:1002F000E1F700E33BD087E19AEFACD78A95E1F7CD
:1003000000E334D098E7A6D700E330D098E7A2D72F
:1003100008E32CD09AEF9ED70CE028D09AEF9AD71A
:1003200006E024D038D008950E9425010E94D40010
:1003300000E20093DE070093DF070093F0070093CD
:10034000F1070093F2070093F3070093040800936A
:10035000050800EC0BD0D7E0CEED14E176D704E928
:1003600005D0D7E0C2EF14E170D71895AD9892E3AD
:1003700071D7AE9A0BBB96EE6DD7AE9898EC6AD754
:1003800098EC68D798EC66D798EC64D798EC62D76D
:1003900094E660D7089500E4E9DF00E06CD300E064
:1003A0006AD300E068D300E066D300E064D300E0E5
:1003B00062D300E060D300E05ED304E05CD30EE0E3
:1003C0005AD305E158D304E056D304E054D304E0F3
:1003D00052D304E050D300E04ED304E04CD304E009
:1003E0004AD304E048D304E046D305E144D30EE009
:1003F00042D304E040D300E03ED300E03CD300E031
:100400003AD30EE038D301E136D30FE034D301E024
:1004100032D30FE030D300E02ED30FE12CD300E035
:100420002AD301E128D309E126D305E124D303E14E
:1004300022D301E120D300E01ED30895D1E0C0E132
:10044000FAE2E8E000E1C8953196088221960A9523
:10045000D1F7089584E69AEFFDD68A95E1F700E397
:1004600025D087E19AEFF6D68A95E1F700E31ED012
:1004700098E7F0D600E31AD098E7ECD608E316D058
:100480009AEFE8D60CE012D09AEFE4D606E00ED050
:10049000089500E80BD0D7E0C0EE10E1D6D600EC0E
:1004A00005D0D7E0C4EF10E1D0D61895AD9892E30F
:1004B000D1D6AA9A0BBB96EECDD6AA9898ECCAD6FE
:1004C00098ECC8D698ECC6D698ECC4D698ECC2D6B0
:1004D00094E6C0D6089526E0A0910D020E943C014A
:1004E000282F1EE997990E948705139596990E94D7
:1004F000870510912002103009F40895B89A88EC0D
:100500009AEF0E942A098A95D9F710EAF7D2822F2A
:100510000E9490053092EE04803039F49698979AB4
:100520000F2D0F77F02EB89808959798969A0F2D63
:100530000068F02EB89808956894F2F80F2DF02E08
:100540001F987BD6709302047432A8F37452709390
:100550000204872F309101043395393009F4BBDF51
:100560003A3009F457D0393109F454D0393209F40A
:1005700051D0393309F44ED0393409F44BD03935E0
:1005800009F448D03A3600F130911F023395309388
:100590001F026894B7F8209114023217A8F030E0D7
:1005A00030931F02309301047EE10F2D0078003854
:1005B00039F00068F02E9798969A0E94540A04C069
:1005C0009698979A0068F02E3093010420910502C6
:1005D00043FD24E63130E8F0320770F047FD08951E
:1005E00046FD0895B89A9498A89A00E10093650092
:1005F0000F2D0C77F02E089547FD089546FD0895C0
:10060000B898949AA89801E0009365000F2D0360B4
:10061000F02E0895849B0C94090318E40E947E0533
:100620002395263099F420E00E9487050E945511F9
:1006300019E464D2C22F1AE461D2D22F21962C2F52
:1006400019E465D22D2F1AE462D203C00E948705F7
:1006500008951CE453D2C22F1DE40E947E05D22FC0
:1006600021962C2F1CE40E9487052D2F1DE44FD2CC
:10067000089518E40E947E05822F0E949005109232
:1006800050022092510230925202089570FB16F0EF
:10069000959801C0959A8091050243FD84E640D269
:1006A0001092930520929405309295051092560968
:1006B0002092570930925809032FE0D1D5E0C8E8BD
:1006C00014E1C3D5089500E20093170100931A01C5
:1006D000009320010093210100931E0100931F014C
:1006E000809110020EE200932301833678F400E239
:1006F0000093C4078D3320F08CE30EE30093C4070E
:100700000FD22092C5073092C70705C00DE20093B3
:10071000C5070093C7070895032FB0D1D7E0C8EBF2
:1007200014E193D5089500E00093060B8091100228
:100730008A3070F401E00093060B2CE3281B822F13
:10074000EFD12092D4073092D6070E946E1A0895F6
:1007500004ED0E943E05D7E0C8EB14E10E94250994
:100760000895032F0E943E05D9E0CCEA14E10E94CF
:1007700025090895032F0E943E05D9E0C0EC14E13D
:100780000E94250908952091020C2930A9F554D61C
:1007900008950F2D0064F02E50D51AC20F2D00645D
:1007A000F02E4BD58BC227E0A0E50E943C01809340
:1007B0000F020E94C80604E961D1D6E0C0E514E149
:1007C00044D50E94C8060E945B1000EC57D1D7E0C8
:1007D000C0E914E13AD500E851D1D9E0C4ED14E103
:1007E00034D5B6FE03C00E94971ACDCF04ED46D192
:1007F000D6E0C8E714E129D50E940505C1D0173F0E
:1008000041F2A8951F36D1F0193FA1F01B3E71F0BF
:100810001C3E21F21F3739F21E3F71F0123781F072
:100820000C9B14C030E030930A0B089548600E947E
:1008300000030895477F08950C94510B0C94CB044A
:100840000E9450000895E894B3F80895B0FEFECFDA
:10085000E894B0F86894B6F801E00093060B0E94A3
:10086000AC1BB0FEFECFE894B0F8E894B6F800E018
:100870000093060B0E94AC1BE0D40E94F2029598F4
:1008800072E30F2D0E7EF02ED8D400E8F7D0D5E01D
:10089000CAEE14E1DAD434E7B0E304E1D5E0CAEEFD
:1008A0000E94CE1D70CFE093010210E02E2F2FD1B9
:1008B00012E221E0B1FE20E02AD10F2D0F7BF02EB5
:1008C000BCD41DD50895E091010277246A30F0F37D
:1008D000E091010260E0A89544FF0C945C0E872D26
:1008E0008F300AF7C4E1B6D44BD01F3F09F077240C
:1008F0001B3FD1F11F3709F4D6CF1F3E31F47724C7
:10090000E39560E0E0350CF0E0E51D3F31F477243D
:10091000EA9560E0E13458F4E1E4143F19F47724F7
:10092000E894B1F8163E19F477246894B1F860E0C1
:1009300020E220936B0920936D090E94D7046C304C
:10094000F0F301E0B79902E000936F098E2FE8D031
:1009500020926B090EE200936C0930926D090E949F
:10096000D7046A31F0F3B7CFE093010210E02E2FE5
:10097000CED0C5D447FD3AC646FDD6C50C945C0E14
:1009800000270ABB0BBBAB98000019B30FEFAB9A63
:100990000ABBA895089570E00E94460CC19A0E9477
:1009A0001D097F30F0F30E94410CC198089500E8C2
:1009B00065D0D9E0C8E414E148D400E3D9E0C8E444
:1009C00000EC5CD0D9E0CCE514E13FD447FD0DC08C
:1009D00001E3D9E0CCE504E951D0D9E0C0E714E166
:1009E00034D402E3D9E0C0E706C004E947D0D9E037
:1009F000C4E814E12AD404ED41D0D9E0C8E914E1F7
:100A000024D403E3D9E0C8E908952091010C2F3FD5
:100A100009F40895A8952091020C213021F4FEE1FB
:100A20000E94B01E1BC0223021F4FEE10E94E41E91
:100A300015C0233039F4FEE10E94241F22272093A1
:100A4000020C0CC0243011F40C940619293031F436
:100A500009E30093010A0E949E1F08952091010C52
:100A6000213711F40E942F1C08950FEF0093010C01
:100A70000093030C08951ED0AD9A02C01BD0AD9810
:100A8000AE9A0BBB90E5E6D3AE9808951F93AF9A4C
:100A9000AD9811271ABB1BBBAE9A000019B3107892
:100AA000AE981030C9F71FEF1ABB1BBBAD9AAF98B9
:100AB0001F91089581E00E942A090895FBDFAD9AF5
:100AC00002C0F8DFAD98AA9A0BBB90E50E942A09F4
:100AD000AA9808951F93AF9AAD9811271ABB1BBB14
:100AE000AA9A000019B31078AA981030C9F71FEF1E
:100AF0001ABB1BBBAD9AAF981F910895E199FECF29
:100B000000E00FBB1EBBE09A00002DB30895E199F1
:100B1000FECF00E00FBB1EBB2DBBE29AE19A089509
:100B20008F932F93112422243324843630F013948E
:100B30008456843610F01394FBCF8A3030F023941F
:100B40008A508A3010F02394FBCF382E20E3120E07
:100B5000220E320E211511F420E2122E2F918F91C8
:100B600008958F93112422243324843130F0139478
:100B70008451843110F01394FBCF823030F02394F1
:100B80008250823010F02394FBCF813028F03394D0
:100B9000339433943394339420E3120E220E320EA6
:100BA0008F9108952F939F9397FD0DC027FD03C04C
:100BB000291B0CF404C041609F912F9108954E7F32
:100BC0009F912F91089527FFFACF291BA4F7F7CF04
:100BD0005CD0E0910D0260E0772420E220930509CB
:100BE0002093070952D06C30F0F30E9400030E945A
:100BF0001D09A89500E40093870000E40093860097
:100C000026E0AE2F0E943C010E94900580930C02CA
:100C1000209205093092070938D06A3120F3A8954F
:100C200060E0AEDE1D3F51F01F3E89F01F3709F135
:100C30001B3FB1F0872D8233E2F4CFCF7724EA95C2
:100C4000EA95EA9560E0E23308F4E2E3C6CF772460
:100C5000E395E395E39560E0E23D08F0E2EDBDCF7A
:100C6000E0930D0216E02E2F52DFE7D248D30C940A
:100C70005E06E0930D0216E02E2F49DF0F2D0F7B4D
:100C8000F02EDBD20E947F09089500E8F7DED8E05D
:100C9000C8EF14E1DAD200ECF1DED9E0CCE014E1E7
:100CA000D4D204E9EBDED9E0C0E214E1CED204ED07
:100CB000E5DED9E0C4E314E1C8D2089544FF0C9402
:100CC000E805E091020260E0772460E020E22093F2
:100CD00018092093190920931B09D7DF6C30F0F312
:100CE0000E941D09A89523E0A7EE0E943C0108ED93
:100CF000081B3E2F030F802F809300020E94900557
:100D00002EE220931A0910921809209219093092A4
:100D10001B09BBDF6A3110F3A89560E031DE1D3F8F
:100D200061F01F3E91F01F3741F11B3FE9F0872D25
:100D300082331AF5173E81F0C8CF7724EA9560E038
:100D4000E23010F4E2E0C1CFC0CF7724E39560E059
:100D5000E63108F0E6E1B9CFEAE0E093020215E0FF
:100D60002E2FD5DECCD2B1CFE093020215E02E2F8C
:100D7000CEDE63D2C4D20C940112E093020215E0DD
:100D80002E2FC5DE0F2D0F7BF02E57D2B8D208952F
:100D900080910F0200E30093600600935F010093CF
:100DA0003B07869538F405E30093600600935F01E6
:100DB00000933B07B5DE20925D0630925E062092DE
:100DC00038073092390720925C0130925D01209102
:100DD0000F0290E5E7DE40FF13C02DE220930C03E5
:100DE00020930D0320930F0320935C0120935D015A
:100DF00020935F01209338072093390720933B0706
:100E0000089518951895189518951895189518958A
:100E10001895189518951895AFB6AF921F9310E0D6
:100E20001CBD1DBD739473956894B0F81F91AF906D
:100E3000AFBE1895089508951895AFB6AF92639513
:100E4000AF90AFBE189518950E94C51A18951895C1
:100E5000189518951895189518951895189518952A
:100E6000189518950E94591B18951895189518955E
:100E7000189500E10EBF1FEF1DBF9AEFEBD10E9446
:100E8000D40FBB240FEFF02ED8D12EDAE3DA4CDAF0
:100E90000E94210F0E94E31970E07230F0F3D5E058
:100EA000CCE972E393E340E014E20E947E052093D4
:100EB000120210E623DE293010F028E028DE20930D
:100EC000160218E21BDE253010F024E0322F2093AA
:100ED000140230E3320F3093AA0918E218DE10E34F
:100EE000120F0E947E052395283C18F40E94870566
:100EF0000AC020E00E94870530E1130F0E947E05A2
:100F000023950E94870510E0F9DD90E54BDE40FD5A
:100F10002AE491E447DE40FF2AE410E0F8DD209364
:100F2000010215E0EBDD94E13DDE40FD2AE0209377
:100F3000020215E0ECDD8AE48093000216E0DEDDBB
:100F400092ED30DE40FD20EB92E32CDE40FF20EB03
:100F500016E0DDDD20930D0280EB80930C02809380
:100F6000100212E0CBDD95E11DDE40FD2AE096E0A7
:100F700019DE40FF28E02093060220930702822F0B
:100F8000CFDD209292090EE20093930930929409EA
:100F9000A89514E0B3DD9AEF05DE40FD28EC96E954
:100FA00001DE40FF28EC20930802A89513E0A6DD9F
:100FB00094ECF8DD40FD20E890E3F4DD40FF20E80C
:100FC0002093090220930A02A89517E097DD9EEF6F
:100FD000E9DD40FD2DEE98ECE5DD40FF2DEE2093A0
:100FE0000B0211E08BDD95E6DDDD40FD2AE595E0A5
:100FF000D9DD40FF2AE52093040220930502A8953D
:1010000080E081BD44279498002700930204009358
:10101000010400930004F02E10D195981DE90E9460
:101020007E052F3F09F406C0E894B6F821E020932E
:10103000040B10C06894B6F82FEF2093040B0C99A2
:1010400009C01DE921E00E948705E894B6F821E077
:101050002093040B11E152DD20FB0EF417C010E3C6
:101060000E947E052395283C18F40E9487050AC03B
:1010700020E00E94870530E1130F0E947E05239532
:101080000E9487050F2D0260F02E446013E20E943B
:101090007E0520FBB2F86894B5F810E12FDD2093AF
:1010A0000E0210E120910E02239531DD20FB1EF48B
:1010B000F7F8969A01C0979A0E94382130E0309351
:1010C000000B3093010B3093020B3093030B3093E2
:1010D000050B3093060B3093070B3093080B3093BE
:1010E000090BC1986894B4F80E94540A30E0309318
:1010F0001F023093010434E1732FB39B42600E94BE
:101100004719B49B0AC02AE02093150206E607BBE4
:101110000E94A91F0E94CE1F29C000E8AFDCD6E0C4
:10112000C8EC10E192D0959807E007BB0FEF08BB21
:1011300000E002B900E103B900E8A0DCD6E0C0E0BD
:1011400014E183D0F9D979D00C9B07C000EC96DC70
:10115000D6E0C4E10E94000306C000EC8FDCD6E0BC
:10116000C8E20E94F20214E170D0E6CF6894F3F86E
:1011700064D0A895B0FEFACF0E94F11F0E94A01A79
:101180000E94FA1DE894F3F8B0F857D0FCDA0E94F8
:10119000030AFCD244FF0CC047FD18C046FD1EC028
:1011A00030EC61D034E977DA34ED8DDABCDA1DC089
:1011B00004E90E943E05D7E0C4EA14E10E94250933
:1011C00034ED81DAB0DA30EC66DA0FC030EC4BD0B7
:1011D00034E9D0DA34ED77DAA6DA07C030EC43D060
:1011E00034E9BFDA34ED6FDA9EDA0E949A11849BFB
:1011F0000FC030910104313058F076D354D827E035
:10120000A0E50E943C0180930F020E94C8060000E6
:1012100093D9B9DAA8950000A89530910104343625
:1012200040F4313028F012D447FD02C054D4A895C0
:101230009DCFA9DA0E94F20299CFFBBAAC980000C8
:101240000000AC9A000000000895099114DC1A9582
:10125000E1F70895A89500000000000000000000DC
:101260009A95C1F7089500EC09DCD4E0CCE514E1CF
:10127000ECDF089500930F010093110147FD13C0A7
:1012800046FD11C08091050243FD84E649DC1092C1
:101290000601209207013092080105E2009309013E
:1012A00000E200930A0100E500930C0108E60093B8
:1012B0000D0130911F023030D8F0309101043230EE
:1012C000B8F0809100022CDC20920F0130921101C5
:1012D00080910002843660F000E200930D0105E485
:1012E00000930F0103E5009311010EE200930F013B
:1012F00000ECC4DBD1E0C0E014E1A7DF0895A895BD
:101300000E94C0041F3FD9F70FEF60E0772473E01D
:10131000089500ECB3DBD6E0CCE314E196DF08954A
:10132000F5FE02C071FFF5CF03E50093150101E65C
:10133000009316010CE6009317010EE200931B01C7
:101340000093240100E20093180100932201809190
:101350001002833668F48D3320F08CE30EE30093A3
:1013600018010000DDDB20921A0130921C0105C03B
:101370000DE200931A0100931C0100E500931F0188
:1013800008E60093200100E50093210147FF11C00A
:1013900080910602C5DB00E20093210103E4009383
:1013A0001F010CE6009320012092230130922501B9
:1013B0001CC046FF13C080910902D3DB00E20093FA
:1013C000210102E500931F0104E600932001109221
:1013D0002301209224013092250107C0809101024F
:1013E0009FDB209223013092250100E20093260129
:1013F000009327010093280104E940DBD1E0C4E118
:1014000014E123DF089500E839DBD7E0CEED14E1E5
:101410001CDF872F85DB2092690530926A05809159
:1014200001047EDB20926E0530926F0580911F02D1
:1014300077DB30927305089534E7B0E304E1D7E039
:10144000C0EE34E7B1E304E1D7E0C0EE0E94CE1D68
:1014500034E7B2E304E1D1E0C0E034E7B3E304E110
:10146000D1E0C4E134E7B4E304E1D4E0CCE50E9488
:10147000CE1D34E7B5E304E1D5E0C0E60E94CE1D01
:1014800034E7B6E304E1D7E0C8E10E94CE1D34E7BB
:10149000B7E304E1D7E0CCE20E94CE1D08950991A4
:1014A0000DDB1A95E1F708952F932227022E122EB5
:1014B000222E322EF3E2E0E00AEFC8953A96200C95
:1014C0000BF433940A95C9F716D0E4E22E1659F4BA
:1014D000F9E23F1641F42BEF15E20E94870568946C
:1014E000B4F82F910895E894B4F82FEF15E20E9414
:1014F00087052F910895222D16E20E948705232D3E
:1015000017E20E9487050895E0930A0213E02E2F48
:10151000FEDAE1D20F2D0F7BF02E8FDEF0DE089584
:10152000E0930A020E9414186A30F0F3E0910A0274
:1015300060E0A895872D8F303AF70E94C0041F3FC6
:1015400011F000E0702E1B3F81F11F3709F4DCCF52
:101550001F3E39F400E0702EE39560E0E33C08F0B4
:10156000EAEA1D3F39F400E0702EEA9560E0E033CE
:1015700008F4E2E81E3F11F40E94900A60E080E265
:1015800080937F09809380098093810910DA6C3001
:10159000F0F38E2FE6DA10927F09209280093092C4
:1015A000810905DA6A31F0F3C4CFE0930A0213E04F
:1015B0002E2FADDA00E0702EA2DE7EC3E09307028C
:1015C00012E02E2FA4DA0F2D0F7BF02E36DE97DEE1
:1015D0000895E093070212E02E2F99DA90DE00E0E2
:1015E000702E6AC3E09307020E9414186A30F0F369
:1015F000E091070260E0A895872D8F30FAF60E94EF
:10160000C004103011F000E0702E1E3F59F31B3F54
:1016100001F31F3709F4D2CF1F3E39F400E0702EDA
:10162000E39560E0E4310CF0E4E11D3F39F400E0C3
:10163000702EEA9560E0E63008F4E6E01E3F11F413
:101640000E94900A60E080E280939209809394095E
:10165000AED96C30F0F38E2F63DA209292090EE24D
:101660000093930930929409A2D96A31F0F3C3CF61
:10167000E093050211E02E2F4ADA0F2D0F7BF02E9A
:10168000DCDD3DDE0895E093050211E02E2F3FDA08
:10169000E091140200E0702E32DE15C90E94450070
:1016A00008956A30F0F3E091050260E00F2D0064C8
:1016B000F02EC3DDA895872D8F30D2F60E94C0048E
:1016C0001F3F11F000E0702E123741F31B3FD9F29B
:1016D0001F3709F4CDCF1F3E39F400E0702EE3959B
:1016E00060E0E4360CF0E4E61D3F39F400E0702ED3
:1016F000EA9560E0E530A0F4E5E0153F49F413E237
:1017000020E00E948705C198E894B2F84F7B4F779C
:10171000173E31F413E221E00E9487056894B2F885
:10172000173FB9F060E000E20093560900935709B3
:10173000009358093CD96730F0F38E2FF1D91092FD
:101740005609209257093092580931D96A31F0F37D
:10175000ADCF04E993D9D7E0C8E114E176DD04ED1B
:101760008DD9D7E0CCE214E170DDA0CF0093000268
:101770000F2D0F7EF02E959805E400936D0403E580
:1017800000936F0400E200936C040895A89523E091
:10179000A7EE0E943C010FE0801718F44F7E959849
:1017A0000895406130910104313078F308ED081B51
:1017B00030910202030F0837C8F6802F723011F4FF
:1017C000009300028EE280935E02009303028091F8
:1017D00000020296081724F08A958093000206C042
:1017E000845080171CF08395809300028091000242
:1017F00097D910926C0420926D0430926F0410926D
:1018000018092092190930921B098091010288D988
:10181000209260043092620420926B0930926D092C
:101820002EE220936C0920931A0930910002209136
:1018300001028BE538170CF024C0909101048CE371
:10184000981708F01EC0F5FC1CC0977066B267FCC4
:101850000CC030910002209101023395231B27FD1B
:1018600010C0220F291768F011C03091000220919A
:1018700001022395321B37FD04C0330F391708F0DE
:1018800005C00F2D0F7EF02E959808950F2D006145
:10189000F02E959A0E94E91D089591E09093060B11
:1018A0002FC030EF0E94C118A0910D0226E00E94C7
:1018B0003C0187FD80E0883090F404E30093010A46
:1018C0000E949E1F0E9406190E94F20295980F2DF9
:1018D0000E7FF02E0E941D0985C00C946E1100E34E
:1018E0000093010A0E949E1FA89526E0A0910D0278
:1018F0000E943C0180930D0B863098F28F3068F285
:10190000082F0E94900510925402209255023092A6
:101910005702109204092092050930920709753088
:1019200021F400930C020093100280910C02839525
:101930008395081730F08A9580930C0280931002EB
:1019400008C08450801728F0839580930C02809300
:10195000100220910F029AE025D940FF10C090E5B7
:1019600021D940FD0CC04B7F80910C02880F921B47
:10197000990F38E3930F989F812D8093100243FDB8
:1019800004C08A3030F06894B5F80895809311024D
:101990000895A89571FF0895909111028917B1F7E4
:1019A0009FE3981B892F8350BBD82092BB053092B0
:1019B000BD0595E08091110289170CF472DFE8945F
:1019C000B5F8089500E80E943E05D5E0C4EC14E1A6
:1019D0003CDCA89504E90E943E05D5E0C0EB14E18B
:1019E00034DC089500E80E943E05D5E0CCE914E11E
:1019F0000E94250900EC0E943E05D6E0C8EC14E1E7
:101A00000E94250904E90E943E05D7E0C4EA14E1DA
:101A10000E94250904ED0E943E05D7E0C4EA14E1C6
:101A20000E94250905E30093010A0E949E1F009170
:101A30000B0B0E3120F001E00093090B03C001E015
:101A40000093080B0E94AC1BFFCF0895A89521E0DE
:101A5000A09108020E943C0186958695082F8AE095
:101A6000801714F04F7708950F5040688091060258
:101A70000E9490051092CD092092CE093EE230934B
:101A8000CF093092D009209241093EE230934209B9
:101A900030924309839508171CF08093060206C014
:101AA0008A958A95801714F080930602302F209132
:101AB0000702309106020E941E112395321718F07A
:101AC0000E94F20206C02A952A95231714F00E945C
:101AD000000308950895309101043030D8F3A8959B
:101AE000882722E0A0910B020E943C01082F8E5211
:101AF000809323020E94B1058CE3081710F44F7BFA
:101B000008958AED801710F44F7B089510926305B5
:101B100020926405309265051092BB092092BC09A1
:101B20003092BD0910927F0920928009309281097C
:101B300010922D0920922E0930922F090E524064E6
:101B4000809109028395801718F48093090206C0DA
:101B50008A958A95081710F480930902302F2091F6
:101B60000A02822F0E94B10510922D0920922E099F
:101B700030922F0920910A02309109020E9401112E
:101B80002395321718F00E94F20206C02A952A9572
:101B9000231710F00E940003089508951124882748
:101BA000DD27110F02E0C0E7088303E0C1E70883E7
:101BB00004EAC4E70883C4E7088107FFFCCFC1E754
:101BC000088100E9010FC3E7088304E8C4E708833C
:101BD000C4E7088107FFFCCFC1E70881022FC3E7F4
:101BE000088304E8C4E70883C4E7088107FFFCCF43
:101BF000C1E7088104E9C4E708830000000002E0AF
:101C0000C0E7088303E0C1E7088304EAC4E7088368
:101C1000C4E7088107FFFCCFC1E7088101E9010F94
:101C2000C3E7088304E8C4E70883C4E7088107FF23
:101C3000FCCFC1E7088104E8C4E70883C4E7088152
:101C400007FFFCCFC1E70881C3E7388104E9C4E797
:101C50000883AA9529F0131E90F68395A895CFCFF7
:101C600008950895E093140218E22E2F0E9487052C
:101C70000F2D0F7BF02E0E941D090E947F090895F1
:101C8000222719E40E9487051AE40E9487051BE4B5
:101C90000E947E0523950E9487050E947F09089572
:101CA000E093140218E22E2F0E94870500E0702EA8
:101CB0000E947F090C94510BE894B5F86A30E0F368
:101CC00060E018E20E947E05E22F213011F4689452
:101CD000B5F8A895872D8F302AF60E94C0041F3FC3
:101CE00011F000E0702E1C3E59F2133FF9F11B3F3A
:101CF000B9F21F3709F4B6CF1F3E31F400E0702E61
:101D0000E395E4300CF0E4E01D3F31F400E0702E88
:101D1000EA95E13008F4E1E0153F59F419E920E0D3
:101D20000E94870520E22093A909E894B5F84F7B2B
:101D30004F77173E49F419E921E00E94870525EA0B
:101D40002093A9096894B5F860E080E28093AA091D
:101D50000E94D7046C30F0F38E2F0E9490053092D1
:101D6000AA090E94D7046A31F0F3B3CF0E947F1A08
:101D700000EC0E943E05D7E0C0E914E10E9425096D
:101D80000E947F09A6CFC598C69820E103C00A9596
:101D900009F40895C598C69883FDC59A91E00E94FC
:101DA0002A09C69A91E00E942A09C598C69882FD20
:101DB000C59A91E00E942A09C69A91E00E942A09D8
:101DC000C598C69881FDC59A91E00E942A09C69AD5
:101DD00091E00E942A09C598C69880FDC59A91E0B5
:101DE0000E942A09C69A91E00E942A09C598C698BD
:101DF00085FDC59A91E00E942A09C69A91E00E9449
:101E00002A09C598C69886FDC59A91E00E942A09BC
:101E1000C69A91E00E942A09C598C69884FDC59A81
:101E200091E00E942A09C69A91E00E942A09C59869
:101E3000C69887FDC59A91E00DDAC69A91E00ADA54
:101E4000A6CFD4E0C0E2FAE2E8E004EBC895319610
:101E5000088221960A95D1F7D5E0C0E1FAE2ECEBD1
:101E600000EFC8953196088221960A95D1F7D6E001
:101E7000C0E0FBE2ECEA00EFC895319608822196BB
:101E80000A95D1F7D6E0C0EFFCE2ECE900EFC89587
:101E90003196088221960A95D1F7D8E0C8EFFDE285
:101EA000ECE800EFC8953196088221960A95D1F7A3
:101EB000D9E0CCEFFEE2ECE708ECC8953196088259
:101EC00021960A95D1F7089534E621E0522ED2E00A
:101ED000C0E6F6E2E0E200E1C8953196088221967C
:101EE0000A95D1F760E06E31F0F3832F0E949005E0
:101EF00010926D0220926E0230926F0200E80E94F2
:101F00003E05D5E0C8E810E10E9425090E94C00402
:101F10001F3E29F01D3F49F01F3769F0E3CF33958D
:101F20003395339533953395DDCF3A953A953A9578
:101F30003A953A95D7CF232F14E20E948705DFD92F
:101F400008953F93922F80911202989F912D802D9A
:101F500024E6422E20E0522E222E122E022E95151D
:101F600019F4841508F408C0C297C2971394141486
:101F7000B1F723941418F3CF812D212D80931302F0
:101F80000E94900510925D0220925E0230925F02E4
:101F9000809112020E9490051092540220925502E4
:101FA000309256023F91089507E003BF00E002BF60
:101FB00000BF00E001BF00E00DBD00E00CBD00E08F
:101FC00007BD00E006BD0AE70BBD02E10ABD00E067
:101FD00009BD0AEF08BD00E00FBD04E00EBD00E042
:101FE00000BF05BD04BD03BD06BF00E005BF00E0A6
:101FF00004BF01E507BF78940FEF04BB0FE105BBF9
:1020000007E007BB0FE908BB949803EF01BB0FE1A2
:1020100002BB0FEF0ABB0BBB00EB02B90FEF03B91A
:1020200001E10093640000E1009365000027F02EB9
:10203000B39BC198B39BB998949812E10E947E0516
:102040009AEF0E94D20540FD0E945000959A12E13D
:102050000E947E05422E13E10E947E05522ED2E0A0
:10206000C0E4F6E2E0E000EDC895319608822196E2
:102070000A95D1F700000E948E11D7E0C0EEF8E279
:10208000E0E000E1049DE00D00E1C8953196088292
:1020900021960A95D1F7D7E0C4EFF9E2E0E000E13C
:1020A00011E0059DE00D00E1C8953196088221966A
:1020B0000A95D1F7089519E40E947E05C22F1AE40B
:1020C0000E947E05D22F88279927AA27BB27D130C7
:1020D00070F0D13060F0E297E29783958A30C8F3D0
:1020E00093958A509A30A8F39A50A395F2CFC436AC
:1020F00050F0C45683958A30D0F38A5093959A3025
:10210000B0F3A395F4CFCA3018F0B395CA50FBCF03
:1021100020E3820F920FA20FB20FC20F9093E30938
:102120008093E409B093E509C093E60925E0AFE4A4
:102130000E943C010E9490051092280120922901E2
:1021400030922B0128E4209326010EE200932A010D
:1021500026E520932D0124E620932E0123E62093EB
:102160002F0120E2209325012093270120932C01A9
:1021700020933001209331012093320120933301C9
:102180000E94C0041E37E1F126E0AEE60E943C0149
:10219000843008F001C080E000E300932B018695B5
:1021A00018F405E300932B010E949005209228016A
:1021B0003092290120924B0730924C0728E420935B
:1021C00026010EE200932A0127E620932D0122E743
:1021D00020932E012EE220932F0123E4209330013F
:1021E00020E2209325012093270120932C010CE667
:1021F000009331010FE20093320108E400933301B0
:1022000008952F93B7FE14C080911602880F281BE3
:10221000321740F0869583958395280F231744F055
:102220002F910895C19A21E02093050B2F910895D5
:10223000C19820E02093050B2F9108952F93B7FCB0
:1022400011C080911602281B2395321728F027E031
:10225000231744F02F910895C19A21E02093050B94
:102260002F910895C19820E02093050B2F91089598
:102270008F932F933F930E949005209230023092CB
:102280003102822F0E94900520925002309251021A
:10229000832F0E9490051092520220925302309296
:1022A00054023F912F918F91089580915502C097CC
:1022B000582E10E5150D0E947E05C22F88E0180FDC
:1022C0000E947E05D22F21962C2F10E5150D0E941D
:1022D00087052D2F180F0E9487050895209115025C
:1022E0002395209315022837B8F00E94F2029598A2
:1022F00000E80E943E05D5E0CCE910E10E942509E6
:1023000000EC0E943E05D6E0CCED10E10E942509CC
:10231000000000008895FCCF0C94800CD3E0C0E353
:10232000F6E2E0ED00EAC8953196088221960A951A
:10233000D1F7089525E0A1E50E943C0180930B0BA5
:102340000E9490052092B0033092B20320922C0795
:1023500030922E0724E0A1E50E943C012EE4209358
:10236000B403209330072FE42093B5032093310763
:10237000893150F023E52093B4032093300729E4FA
:102380002093B5032093310726E0AEE60E943C017E
:1023900000E30093BA0300933607869528F405E31B
:1023A0000093BA03009336070E94900520924B07D2
:1023B00030924C07209233073092340708957727E4
:1023C0000E94C00425EA2093A9091F37B9F0972F6E
:1023D00080EF891B809320030E9490051092610773
:1023E000209262073092630704ED0E943E05D7E019
:1023F000C4E514E10E942509703F11F70E947F098E
:10240000089546FF0C9464120E944506E0910B0269
:1024100060E0772460E020E220932D0920932E09CC
:1024200020932F090E9445066C30F0F30E941D098D
:10243000A89522E0AE2F0E943C018E5280930902A3
:102440000E94B10510922D0920922E0930922F0979
:102450000E9445066A31F0F3A89560E00E94C0042E
:102460001D3F51F01F3E81F01F3701F11B3F99F0D6
:10247000872D8233DAF4CECF7724EA9560E0E83C0A
:1024800010F4E8ECC7CFC6CF7724E39560E0EE3FC9
:1024900008F0EEEFBFCFE0930B0217E02E2F0E9463
:1024A00087050E947F090C9464120895E0930B0243
:1024B00017E02E2F0E9487050F2D0F7BF02E0E9414
:1024C0001D090E947F09089547FF0C94E8050E94AA
:1024D0004506E091080260E0772460E020E2209366
:1024E000410920934209209343090E9445066C301C
:1024F000F0F30E941D09A89521E0AE2F0E943C0137
:10250000869586958F50809306020E9490052092B2
:1025100041090EE200934209309243090E944506A8
:102520006A31F0F3A89560E00E94C0041D3F51F0AD
:102530001F3E79F01F3719F11B3F91F0872D823331
:10254000F2F4CBCF7724E85060E0E63908F4F6E9FE
:10255000C4CF7724389660E0E93F08F0E9EFBDCFBB
:10256000E093080214E02E2F0E9487050F2D0F7BA9
:10257000F02E0E941D090E947F090C94E805E0934B
:10258000080214E02E2F0E9487050F2D0F7BF02EDE
:0A2590000E941D090E947F090895B2
:10260000526430303020533030204D303020433051
:1026100020202020202D2E2D2050485220372E34CF
:1026200050524F445543494F4E2025202020202012
:1026300045515549504F20444554454E49444F203B
:1026400020202D2E2D20204B67722F4D332020204F
:102650002020410041444952202053414C20202059
:1026600020202041204A205520532054204520205E
:10267000202053494E202043415544414C202020E6
:102680002045515549504F202052454D4F544F2021
:10269000202020454E20204D4152434841202020FB
:1026A0002053494E2050524F44554343494F4E20EA
:1026B000204E4956454C204445504F5349544F20D5
:1026C00054454D50455241545552412020202E2012
:1026D000202020454E2045535045524120202020A7
:1026E000202020202020534547554E444F53202082
:1026F000434F4E53554C544152204D414E55414C41
:1027000020204120562045205220492041202020D1
:1027100046414C4C4F2050525544554343494F4E2F
:1027200020537573742E20536F6E6461205068209F
:10273000204552524F5220434F4E4558494F4E204C
:10274000564675205673205020636C2054656D707A
:10275000302E30204E4F2030302E30202D2D2E2D7B
:1027600050726F642E20436C202D2D2047722F480D
:10280000202035302020383020313230203138300F
:102810002032323020203430202037302031303008
:1028200020204C20204C5320204C4D47202051206C
:102830002051532020514D4720313233203435363A
:102840002020202020202020202020202020202088
:102850002020202020202020202020202020202078
:102860002020202020202020202020202020202068
:102870002020202020202020202020202020202058
:102880002020202020202020202020202020202048
:102890002020202020202020202020202020202038
:1028A0002020202020202020202020202020202028
:1028B0002020202020202020202020202020202018
:1028C0002020202020202020202020202020202008
:1028D0004D542053414C54202020202020202020E3
:1028E0004D415354455253414C5420202020202028
:1028F00020202020202020202020202020202020D8
:102900004D4153544552202053414C542020202007
:102910004D4153544552202053414C5420202020F7
:102920004D4153544552202053414C5420202020E7
:102930002020202020202020202020202020202097
:102940004E5545564F20434C49454E544520312065
:102950004E5545564F20434C49454E544520322054
:102960004E5545564F20434C49454E544520332043
:102970004E5545564F20434C49454E544520342032
:102980004E5545564F20434C49454E544520352021
:102990004E5545564F20434C49454E544520362010
:1029A0004E5545564F20434C49454E5445203720FF
:1029B0004E5545564F20434C49454E5445203820EE
:1029C0002020202020202020202020202020202007
:1029D00020202020454E20455350455241202020A4
:1029E000202020202020534547554E444F5320207F
:102A080020202020202020202020202020202020BE
:102A180020202020202020202020202020202020AE
:102A2800202020202020202020202020202020209E
:102A380020202020202020202020202070487020C6
:102A48002D2E2D207048206167756120202D2E2D98
:102A580020454649434143494120454C45432E20A2
:102A68002D2D2D2554454D50455241545552412048
:102A78002D2D2E2D20DF432050524F2E544F5441E0
:102A88004C202D2D2D47722F436C2F4856414C4F0B
:102A98005245532050524F4752414D41444F5320C5
:102AA8005068202D2E2D205264202D2D2D20436C72
:102AB800202D2E2D202050726F642E20706F7220D2
:102AC80063656C6461202020312D323020322D3234
:102AD8003120332D323120342D3139202054656E88
:102AE80073696F6E20706F722063656C646120205B
:102AF80020352E312020352E332020352E3220202F
:102B0800352E33205264203030302053203030208E
:102B18004D2030302043203070487020202D2E2D3D
:102B28002050485220372E342020202050524F4425
:102B3800554343494F4E2020202025202020202087
:102B480020202045515549504F20444554454E4971
:102B5800444F20204104414449522053414C202DE8
:102B68002E2D4B67722F4D3320204104414449528A
:102B7800202053414C2020202020202020202020CD
:102B880041204A2055205320542045202020202031
:102B9800202053494E202043415544414C202020B9
:102BA8002020202020202045515549504F202052D8
:102BB800454D4F544F2020202020202020454E20D6
:102BC800204D4152434841202020202020202053DE
:102BD800494E2050524F44554343494F4E202020E0
:102BE8002020204E4956454C204445504F534954C7
:102BF8004F20202054656D70657261747572612074
:102C08002020202E2020DF432020202020202020CC
:102C18002020202020202020202020202020534554
:102C28004E534F5220444520464C554A4F202020B1
:102C380020202020454E2020455350455241202039
:102C48002020202020202020202020534547554E9A
:102C5800444F5320202020202020434F4E53554CD2
:102C680054415220204D414E55414C2020202020D7
:102C78004120562045205220492041202020202054
:102C8800202046414C4C4F2050525544554343490F
:102C98004F4E2020202020537573742E20536F6EC2
:102CA80064612050682020202020204552524F5235
:102CB80020434F4E4558494F4E20202056467520F8
:102CC800567320416D70202054656D70202020209F
:102CD800302E30204E4F2030302E30202D2D2E2DEE
:102CE800202020202050726F2E636C6F726F202D71
:102CF8002D2047722F48202020456E20657370656F
:102D080072612020202D2D2D5365672020436F6D83
:102D180070726F62617220636F6E6578696F6E2082
:102D28002020204361626C6520656C656374726F56
:102D3800646F20205669646120656C656374726FE6
:102D4800646F20202D2D2D252020202020202020BC
:102D580020202020202020202020202053414C20EB
:102D6800454E204147554120202D2E2D20672F6CA0
:102D780020410441444952202D2C2D20672F6C20DE
:102D88002020202043414C49425241522053414C7B
:102D9800202D2E2D20672F6C43414C494252415221
:102DA80020704820204E2F442020202043414C49A9
:102DB8004252415220526478204E2F44206D5620B2
:102DC80043414C494252415220436C20204E2F44EB
:102DD8002070706D4E6976656C2064652070726F26
:102DE80064202D2D2D25436C7048206D6178206559
:102DF8006E2061677561204E2F4420204E697665EC
:102E08006C205264782061677561204E2F444D769E
:102E18004E6976656C20436C2061677561204E2F82
:102E28004470706D496E76657274697220506F6C6B
:102E38002063616461202D6850726F642E20417593
:102E4800746F20526478202D2D2D6D5650726F644A
:102E58002E204175746F20436C202D2E2D70706DBF
:102E680055736F2064656C2065717569706F202DCE
:102E78002D2D2D48706167652030202070696320F2
:102E88002074302E7478743D6A302E76616C3D2043
:102E980031202020204E30205349202074352E62C6
:102EA800636F3D353037313220202020202020200C
:102EB80074352E62636F3D32303136202020202059
:102EC800202020205265646F78206D6D56202020C8
:102ED8002020202020202020436C6F726F207070EB
:102EE8006D20202020207130302009207069632057
:102EF8003434312C32352C33362020202020202029
:102F0800202045786365736F2064652053616C20C9
:102F1800202020205348554E542020202020204D8A
:102F28004F53202020202020202020202020202037
:0C2F38002020202020202020202020200D
:10300000F093160210E62F2F0E9487050E947F0979
:103010000895F093160210E62F2F0E94870500E016
:10302000702E0E947F090895F0911602A895872DB1
:103030008F3032F70E94C0041F3F11F000E0702E65
:103040001B3F39F31F3709F4DBCF1F3E39F400E093
:10305000702EF39560E0F8300CF0F8E01D3F39F485
:1030600000E0702EFA9561E0F23008F4F2E06A3187
:10307000F0F301D0DBCF8F2F0E9490053092EB014F
:1030800000EC0E943E05D5E0C8ED14E10E94250940
:1030900047FD2FC000E20093E0010093E10100939F
:1030A000E2010093E3010093E7010093E80100933C
:1030B000E9010093EF010093F0010093F101009307
:1030C000F2010093F30102E50093E40104E60093AA
:1030D000E50108E70093E6010DE20093EA0100E351
:1030E0000093EC010DE60093ED0106E50093EE017F
:1030F00035C000E20093E0010093E1010093E2019A
:103100000093E3010093E5010093E6010093E701DA
:103110000093EA010093EE010093EF010093F001A8
:103120000093F1010093F2010093F30103E4009393
:10313000E4010CE60093E5010DE20093E80100E3F1
:103140000093E9010CE20093EA0100E70093EC012F
:103150000093ED010DE60093EE0100C004E90E942A
:103160003E05D1E0C0EE14E10E9425090E94971AA5
:1031700000E80E943E05D7E0C4EA14E10E94250958
:1031800008950E947F1A81E08093030B06E3009369
:10319000010A0E949E1FB0FEFECFE894B0F83A9557
:1031A00089F100EC0E943E05D6E0CCE814E10E94D3
:1031B0002509832F0E9490051092A3062092A40651
:1031C0003092A50604E90E943E05D6E0C0EA14E16B
:1031D0000E9425093F9334E7B9E303E0D6E0C3EA50
:1031E0000E94CE1D3F910E94C0041F3759F01091DC
:1031F000020C143639F026E0A0910D020E943C0129
:10320000883048F280E08093030B089524E0A3E522
:103210000E943C01853008F408950E94F2029598BE
:103220000F2D0E7FF02E0E941D0900E80E943E0522
:10323000D7E0C4E014E10E94250900EC0E943E059D
:10324000D5E0CCE914E10E94250904E90E943E057D
:10325000D7E0C8E614E10E94250904ED0E943E056E
:10326000D7E0CCE714E10E94250904E30093010AAA
:103270000E949E1F31E03093070B30E03093100224
:10328000B0FEFECFE894B0F80E94AC1BF9CFA0913D
:103290000D0226E00E943C01382F0E9490051092FA
:1032A00042022092430230924402832F3695369593
:1032B000831B80931E02089500E80E946105D1E0FF
:1032C000C0E014E10E944F0A00EC0E946105D1E0C9
:1032D000C4E114E10E944F0A04E90E946105D1E0B3
:1032E000C8E214E10E944F0A04ED0E946105D1E09A
:1032F000CCE314E10E944F0A089500E80E946105A2
:10330000D1E0C0E514E10E944F0A00EC0E94610583
:10331000D1E0C4E614E10E944F0A04E90E9461056D
:10332000D1E0C8E714E10E944F0A809101020E9497
:10333000900510928E0120928F0130929101809120
:1033400007020E94900520929D0130929F0180917A
:103350000A020E94B10510929601209297013092C4
:10336000980104ED0E946105D1E0CCE814E10E94CF
:103370004F0A089500E80E946105D1E0C0EA14E117
:103380000E944F0A00EC0E946105D1E0C4EB14E1F9
:103390000E944F0A04E90E946105D1E0C8EC14E1E3
:1033A0000E944F0A04ED0E946105D1E0CCED14E1CA
:1033B0000E944F0A08950E946105D1E0CCED14E10E
:1033C0000E944F0A0895BB2710E50E947E05C22F78
:1033D00088E0180F0E947E05D22FC7FDD3952FEFEE
:1033E0000E944F1A11E50E947E05C22F88E0180F37
:1033F0000E947E05D22FC7FDD3952FEF0E944F1A52
:1034000012E50E947E05C22F88E0180F0E947E05FB
:10341000D22FC7FDD39526ED0E944F1A13E50E94C7
:103420007E05C22F88E0180F0E947E05D22FC7FDAF
:10343000D3952BEA0E944F1A14E50E947E05C22FF5
:1034400088E0180F0E947E05D22FC7FDD39520E893
:103450000E944F1A15E50E947E05C22F88E0180FC2
:103460000E947E05D22FC7FDD39526E50E944F1AF4
:1034700016E50E947E05C22F88E0180F0E947E0587
:10348000D22FC7FDD39526E50E944F1AB0930304AF
:103490001BE92B2F0E9487050E94581A0895DF3FD1
:1034A00009F408953D2FDD0FD30FD29FB10D08957C
:1034B000A1E2AB1BA3E0BA9F24E62019253608F051
:1034C00020E01CE90E948705822F0E94900510923F
:1034D000A0072092A1073092A207089504ED0E9450
:1034E0003E05D7E0C9EAC70F14E10E9425090895F7
:1034F0002FEF1FEF0E9487051A95E1F7089500E866
:103500000E943E05D7E0C4EA14E10E94250900ECC0
:103510000E943E05D7E0C4EA14E10E94250904E9AF
:103520000E943E05D7E0C4EA14E10E94250904ED9B
:103530000E943E05D7E0C4EA14E10E9425090895DF
:1035400090E09093900094E399B990E09BB998E94A
:103550009AB996E09093950046D00895213739F4B2
:10356000DCE0C1E02883C395C093000C08952F3F91
:1035700021F4CC27C093000C0895DCE0C091000C2E
:103580002883C395C093000C089500000F931F93E8
:103590002F933F938F930FB70F935F9BFECF2CB169
:1035A0000E94AE1A0F910FBF8F913F912F911F91E3
:1035B0000F9190E090930B000E94971D0895FFE5F6
:1035C000E0E004E111E0C89531960CB80CD00A9502
:1035D000D1F70AE00CB907D00DE00CB904D000E136
:1035E0001A9589F708955D9BFECF089504E1FBDFEE
:1035F00011E009900CB8F7DF0A95D9F70AE00CB989
:10360000F2DF0DE00CB9EFDF04E11A9591F70895B0
:103610000F930CB9E8DF0F9108953FE233953CB961
:10362000E2DF00E80E945A05AD98AE9A0BBB90E528
:103630000E942A09AE980E945A05AD9A032FAE9AAD
:103640000BBB90E50E942A09AE98B0FEFECFE8942D
:10365000B0F8E4CF90E09093980094E390939900B1
:1036600090E090939B0098E990939A0096E0909355
:103670009D0052D00895213769F4DCE0C1E0288331
:10368000C395C093000C08952F3F21F4CC27C0931D
:10369000000C08952D3211F421E003C02B3209F4FF
:1036A00020E0DCE0C091000C2883C395C093000C9F
:1036B00008950F931F932F933F938F930FB70F93FB
:1036C00000919B0007FFFCCF20919C000E943B1BB8
:1036D0000F910FBF8F913F912F911F910F9190E00C
:1036E00090939B000E94971D0895FFE5E0E004E1A0
:1036F00011E0C895319600929C000ED00A95C9F74A
:103700000AE000939C0008D00DE000939C0004D0D8
:1037100000E11A9571F7089580919B0085FFFCCF19
:10372000089504E1F9DF0990800C00929C00F4DF19
:103730000A95C9F708950AE000939C00EDDF0DE0BB
:1037400000939C00E9DF04E11A9569F7089500935E
:103750009C00800EE1DF089504E20E94A71B8824EC
:103760000024D7E0CEED0E94911B009105020E943B
:10377000A71B009101020E94A71B0FEF44FB16F448
:10378000009100020E94A71B00910D0B0E94A71B35
:1037900000910A020E94A71B0FEF46FB16F400914E
:1037A00023020E94A71B009107020E94A71B0FEF94
:1037B00047FB16F4009106020E94A71B0091140219
:1037C0000E94A71B1AE40E947E05022F0E94A71BDD
:1037D00019E40E947E05022F0E94A71B1CE90E948B
:1037E0007E05022F0E94A71B0F2D0E94A71B009190
:1037F0000F0225E020170CF00FEF0E94A71B00E03E
:10380000B6FE01E00E94A71B0FEF0E94A71B0091CC
:10381000030B0E94A71B032F0E94A71B01E00E941D
:10382000A71B0091050B0E94A71B0FEF0E94A71B6F
:103830000091060B0E94A71B0091070B0E94A71B7B
:103840000091080B0E94A71B0091090B0E94A71B67
:103850000FEF0E94A71B082D0E94A71B08950F932E
:103860001F932F933F938F930FB70F932FEF2093B7
:10387000010C2091020C253149F0263139F1293112
:1038800021F02B3109F0B8C058C03FC01091030C93
:1038900020910502113031F02395239524363CF018
:1038A00024E605C02A952A95253008F425E02093C2
:1038B000050211E00E948705822F0E949005109258
:1038C0005609209257093092580924C11091030CCF
:1038D00020910102113029F02395203534F020E5A4
:1038E00004C02A95213408F421E42093010210E059
:1038F0000E948705822F0E94900520926B090EE29C
:1039000000936C0930926D0905C11091030C209150
:103910000A02113011F0239501C02A9520930A0262
:1039200013E00E948705822F0E94B10510927F0943
:103930002092800930928109EDC01091030C2091F2
:103940000702113029F02395243130F024E104C01E
:103950002A95263008F426E02093070212E00E9400
:103960008705822F0E949005209292090EE2009313
:10397000930930929409CEC01091030C2091140247
:10398000113029F02395243034F024E004C02A9526
:10399000213008F421E02093140218E20E948705E8
:1039A000822F0E9490053092AA09B4C0E0910D02C6
:1039B0001091030C113039F0E395E395E395E43B66
:1039C00044F0E4EB06C0EA95EA95EA95E23308F4A0
:1039D000E2E326E0AE2F0E943C0180931002E093C8
:1039E0000D0216E02E2F0E9487050E94900520925E
:1039F0000509309207098EC02D3139F02831B1F216
:103A0000273121F02A3161F152C0B6CFE091020294
:103A10001091030C113029F0E395E63134F0E6E122
:103A200004C0EA95E23008F4E2E023E0A7EE0E9449
:103A30003C0108ED081B3E2F030F802F80930002EE
:103A40000E94900520926D040EE200936E04309265
:103A50006F04E093020215E02E2F0E9487055AC0E2
:103A6000E0910B021091030C113031F0E395E395D6
:103A7000EE3F38F0EEEF05C0EA95EA95E83C08F431
:103A8000E8EC22E0AE2F0E943C018E5280930902A6
:103A90000E94B1051092BB092092BC093092BD0969
:103AA000E0930B0217E02E2F0E94870533C02E31C2
:103AB00011F020332FC0E09108021091030C113057
:103AC00029F03896E93F30F0E9EF04C0E850E639D4
:103AD00008F4E6E921E0AE2F0E943C018695869528
:103AE0008F50809306020E9490052092CE090EE22C
:103AF0000093CF093092D009E093080214E02E2FF2
:103B00000E94870507C080939C0000919B0005FFE1
:103B1000FCCF08950F910FBF8F913F912F911F916F
:103B20000F9190E090939B000E94AC1B08958091B0
:103B3000010C0E9490051092C40A2092C50A30928E
:103B4000C60A8091020C0E9490051092C80A209229
:103B5000C90A3092CA0A8091030C0E949005109203
:103B6000CC0A2092CD0A3092CE0A30E23093C70AB6
:103B70003093CB0A3093CC0A3093CF0A00E80E94EE
:103B80003E05D7E0C0EE14E10E94250908952BDD23
:103B900009900CB828DD0A95D9F708953CB923DDC2
:103BA000BCB921DD3EE23CB91EDD34E73CB91BDD8A
:103BB00038E73CB918DD34E73CB915DD3DE33CB9E5
:103BC00012DD32E23CB90FDD0E94C71D32E23CB982
:103BD0000ADD3FEF3CB907DD3FEF3CB904DD3FEFC5
:103BE0003CB901DD0895FFDC09900CB8FCDCAA9516
:103BF000D9F708952091020C293009F4089534E78B
:103C0000B0E304E1D7E0C0EE0E94CE1D34E7B2E39A
:103C100003E0D7E0C5EC0E94CE1D34E7B3E303E038
:103C2000D4E0CDE60E94CE1D47FD0AC046FD25C06A
:103C300034E7B5E304E0D9E0C6E50E94CE1D39C003
:103C400034E7B5E304E0D9E0C6EC0E94CE1D34E7CA
:103C5000B6E30AE0DAE0C0E60E94CE1D34E7B4E342
:103C600003E0D9E0CEEC0E94CE1D34E7B9E303E0D7
:103C7000D9E0C2E90E94CE1D1CC034E7B5E304E0E0
:103C8000D9E0C6EC0E94CE1D34E7B6E30AE0DAE0E4
:103C9000CCE40E94CE1D34E7B4E303E0D9E0CBEBE3
:103CA0000E94CE1D34E7B9E303E0D9E0CDE20E94E3
:103CB000CE1D3AE6B7E302E0D5E0CEE60E94CE1D87
:103CC00094990BC0ACE035E33093250ADAE0C4E206
:103CD0000E94F31D0E94E91D0BC0ABE035E3309359
:103CE000390AABE0DAE0C8E30E94F31D0E94E91D47
:103CF00031E3F7FE32E33093180A34E7B8E301E02A
:103D0000DAE0C8E10E94CE1DF4FC0BC037E330932B
:103D1000250AACE0DAE0C4E20E94F31D0E94E91D2E
:103D20000AC037E33093390AABE0DAE0C8E30E9417
:103D3000F31D0E94E91D3AE6B6E303E0D9E0CBE6C5
:103D40000E94CE1D089536E3F7FE35E33093800AD6
:103D5000ADE0DAE0C4E70E94F31D0E94E91D08957A
:103D60000E945B1039E6B1E304E0D9E0C3EE0E94A3
:103D7000CE1D39E6B2E304E0D7E0C0EA0E94CE1DD2
:103D800039E6B3E304E0D6E0CDE50E94CE1D39E686
:103D9000B4E302E0DAE0CDE10E94CE1DB0FEFECF3A
:103DA000E894B0F8FA9531F400E30093010A0E9418
:103DB0009E1F08950091020C003091F600E30093DD
:103DC000010A0E949E1F089534E7B5E304E0D9E09C
:103DD000C6E50E94CE1D3AE6B6E303E0D9E0CBE6A5
:103DE0000E94CE1D3AE6B7E303E0D9E0CDE20E949F
:103DF000CE1D3AE6B5E301E0D9E0CAEA0E94CE1D45
:103E00003AE6B8E303E0D9E0C2E90E94CE1DB0FE75
:103E1000FECFE894B0F8FA9531F400E30093010A7C
:103E20000E949E1F08952091010C213719F40E94D1
:103E30002F1CCACF2091020C203031F600E30093F2
:103E4000010A0E949E1F089534E7B2E303E0D9E01F
:103E5000C5E00E94CE1D34E7B3E303E0D4E0CDE635
:103E60000E94CE1D34E7B4E303E0D9E0CBEB0E941F
:103E7000CE1D33E6B7E303E0D9E0CEEC0E94CE1DC1
:103E8000B0FEFECFE894B0F8FA9531F400E3009369
:103E9000010A0E949E1F08952091010C213719F4F8
:103EA0000E942F1CD1CF0091020C093031F409E39C
:103EB0000093010A0E949E1F0895003029F600E336
:103EC0000093010A0E949E1F0895A4E7B5E403E051
:103ED000D6E0C3EA0E94CE1D08950E948F1F34E3EE
:103EE0000E94A41F33E30E94A41F35E30E94A41F75
:103EF0003CE20E94A41F31E30E94A41F33E30E940E
:103F0000A41F37E30E94A41F3CE20E94A41F32E3D7
:103F10000E94A41F39E30E94A41F0C94E91D04E031
:103F2000DAE0C4E034DE089507E0DAE0C0E12FDE35
:103F300002E0D5E0CEE62BDE4CDE089506E0D9E0C7
:103F4000CCEF25DE0C94E91D30930C000E94F31A8F
:103F5000089527E0A0E50E943C0180930F020E9493
:103F6000C8060E945B10B6FC06C033E530931D0AFC
:103F700039E430931E0A089507E107BB0FE908BB37
:103F800003E703BF04E601BF089507E907BB0FE994
:103F900008BB03E605BD04E603BD08950FEE02B9B4
:103FA0000FEF03B902EC00938B000AE100938A0043
:103FB00000E00093890000E00093880000E4009393
:103FC000810000E00093800000E00093870000E0A3
:103FD0000093860002E30093C40A84E68093C60A35
:103FE00008950E948120A091C40A883238F081335C
:103FF00038F4A395A03470F0A0E40CC01A960AC05F
:104000008C3338F4843330F0AA95A23018F4A2E04F
:1040100001C0AA50A03408F0A0E4A093C40AA09361
:10402000C70AA0938700A09386008091C40A8D32AE
:1040300008F0089502E20093870002E200938600F0
:104040009AEF0E942A099AEF0E942A099AEF0E9489
:104050002A099AEF0E942A0926E0A2ED0E943C015B
:104060000E9490051092980A2092990A30929B0A19
:104070003EE230939A0A0E94F2020E941D0900EC6F
:104080000E943E05DAE0C8E814E10E94250904E92F
:104090000E943E05D5E0CCE914E10E94250900E824
:1040A0000E943E05D7E0C4EA14E10E94250904ED10
:1040B0000E943E05D7E0C4EA14E10E94250935E0DC
:1040C00000000000B0FEFCCFE894B0F83A9599F0FB
:1040D000832F0E9490051092A3062092A40630928E
:1040E000A5063F9334E7B9E303E0D6E0C3EA0E94B4
:1040F000CE1D3F91E5CF0E940003B0E3B093C40A08
:1041000070CF8827ACE826E00E943C018093C80A63
:1041100008958093C60A00270ABB0BBBAB9800002A
:1041200019B30FEFAB9A0ABB1F3E91F01D3F21F070
:1041300084E68093C60A0895839583958395839535
:1041400083958395873608F088E68093C60A08959C
:104150008A958A958A958A958A958A95803608F4F3
:1041600080E68093C60A089500EE020F07B907EDB6
:1041700006B906B1000006FBE6F385B108958F93FA
:104180008091C70A880F38EC839F812D0E9490058B
:104190001092AC0A2092AD0A3092AE0A85E280936A
:1041A000AF0A8F918827ACE826E00E943C018093FB
:1041B000C80A0E9490051092A20A2092A30A309287
:1041C000A40A00E80E943E05DAE0CCE914E10E946E
:1041D000250908951D9A882723E000EE020F07B9EC
:1041E00007ED06B906B1000006FBE6F385B186953A
:1041F000839538E2830F9AEFA89500009A95E1F72E
:1042000099E18A95C9F71D9808959AEF8AEFA895C4
:1042100000009A95E1F79AEF8A95C9F7DBCF30E174
:1042200035BB0E94202130E235BB0E94202130E4C2
:1042300035BB0E94202130E835BB0E942021089523
:10424000882723E000EE020F07B907ED06B906B193
:10425000000006FBE6F385B1869538E2830F92E312
:10426000A89500009A95E1F79AEF8A95C9F7089505
:1042700010E0109320021EE90E947E05322F1FE9F4
:104280000E947E05EAE02E0F32172CF42E1B3E0F03
:10429000231744F40DC03093200210EA20E00E945E
:1042A000870506C02093200210EA21E00E948705BE
:1042B000809120020E9490051092E8042092E90467
:1042C0003092EA0480E21092EB042092EC043092E7
:1042D000ED0410EA0E947E05822F0E949005309224
:0442E000EC0408954D
:00000001FF
