:10000000BBC7000090C700008FC700008EC700006C
:100010008DC700008DC700008CC700009AC7000084
:1000200099C7000098C700009CC700009BC700004C
:100030009AC7000099C7000098C7000097C7000042
:1000400096C7000095C7000094C7000093C7000042
:1000500092C705E003BF00E002BF00E00CBF00E074
:100060000DBD00E00CBD00E007BD00E006BD0AE7E5
:100070000BBD02E10ABD00E009BD0AEF08BD00E0CA
:100080000FBD04E00EBD00E002BD05BD04BD03BD13
:1000900008BF00E005BF00E004BF01E509BF789498
:1000A0000FEF04BB0FE105BB07EE07BB0EE108BB7A
:1000B000949803EF01BB0FE102BB0FEF0ABB0BBB30
:1000C0000027F02EB39BC198B39BB998949812E186
:1000D000EBD49AEF39D540FD31D0959A12E1E4D4B2
:1000E000422E13E1E1D4522ED2E0C0E4F1E2E0E08E
:1000F00000EDC8953196088221960A95D1F7000047
:10010000D3E0C0E1F3E2E0E000E1049DE00D00E1B6
:10011000C8953196088221960A95D1F7D3E0C0E2BE
:10012000F4E2E0E000E111E0059DE00D00E1C8959A
:100130003196088221960A95D1F7089500E0402E65
:1001400000E0502EB49B5BC0D3E0C0E1F3E2E0E0FE
:1001500000E1049DE00D00E1C895319608822196EA
:100160000A95D1F7D3E0C0E2F4E2E0E000E1059DBA
:10017000E00D00E1C8953196088221960A95D1F7E5
:100180002DD200E858D2D3E0C0E110E10E940F095F
:1001900000EC51D2D3E0C0E210E10E940F0960E010
:1001A0006E31F0F30E942B051F3E69F01D3F91F068
:1001B000153FF1F0173EA9F01F3709F17837F9F034
:1001C0000E94090AC1CF439480E1481611F480E0EF
:1001D000482EBACF4A94842D843110F08FE0482EF7
:1001E000B3CF539485E0581611F481E0582EACCF6C
:1001F0005A94852D803110F024E0522EA5CF12E1C3
:10020000242D5BD413E1252D58D412E220E055D4DF
:100210000E942C0A20E0F22E0E94070960E064365A
:10022000F0F30895C598C69820E103C00A9509F433
:100230000895C598C69883FDC59A91E0F5D7C69AEA
:1002400091E0F2D7C598C69882FDC59A91E0ECD7A7
:10025000C69A91E0E9D7C598C69881FDC59A91E004
:10026000E3D7C69A91E0E0D7C598C69880FDC59AB5
:1002700091E0DAD7C69A91E0D7D7C598C69885FDA0
:10028000C59A91E0D1D7C69A91E0CED7C598C698C5
:1002900086FDC59A91E0C8D7C69A91E0C5D7C598A2
:1002A000C69884FDC59A91E0BFD7C69A91E0BCD7A5
:1002B000C598C69887FDC59A91E0B6D7C69A91E0D1
:1002C000B3D7B4CF50EDBCD015D150E0C5D012D1CA
:1002D00051EDB6D00FD1E1D021D121D030936800BB
:1002E000DCD01CD11CD030936900D7D017D117D0E7
:1002F00030936A00D2D012D130936B00CED00ED1A1
:100300000ED030936C00C9D009D109D030936D0064
:10031000C4D0F0D004D030936E0019D10895832F4B
:1003200032958F703F709AE0399F302D380F0895C5
:1003300050ED86D0DFD050E08FD0DCD050916800F7
:100340008BD0D8D05091690087D0D4D050916A001A
:1003500083D0D0D050916B007FD0CCD050916B0027
:100360007BD0C8D050916C0077D0C4D050916D0034
:1003700073D0C0D0ECD0089551E462D0BBD08DD002
:10038000E6D0232F089550E45BD0B4D05AEA64D06D
:10039000B1D0DDD0089552EA53D0ACD0522F5CD00A
:1003A000A9D053EA4DD0A6D078D0A4D0D0D0232F56
:1003B000089546D09FD0522F4FD09CD0C8D040D067
:1003C00099D06BD097D0C3D008955EE939D092D040
:1003D00050E442D0522F8ED03FD08CD0B8D0232FB3
:1003E0000895A89550EA2CD085D0512F35D082D0D1
:1003F00051E526D07FD0D3E0C0E58FE04ED03883E2
:100400008DD021968A95D1F748D0388373D09FD06C
:10041000C29A0895A895C29894E006D750EA10D0E1
:1004200069D0512F19D066D080E2D3E0C0E0588166
:1004300013D074D021968A95D1F789D0C29A0895A5
:10044000A89AA99AA09AA19A95E0EED6A99895E0C3
:10045000EBD6A89895E0E8D657FD6ED057FF6AD046
:1004600056FD6AD056FF66D055FD66D055FF62D066
:1004700054FD62D054FF5ED053FD5ED053FF5AD07E
:1004800052FD5AD052FF56D051FD56D051FF52D096
:1004900050FD52D050FF4ED008953FEF95E0C4D6A6
:1004A000A19895E0C1D6A89A95E0BED6999B3F77D2
:1004B00018D0999B3F7B15D0999B3F7D12D0999B7B
:1004C0003F7E0FD0999B377F0CD0999B3B7F09D003
:1004D000999B3D7F06D0999B3E7FA89895E0A4D636
:1004E000089595E0A1D6A89895E09ED6A89A95E0A3
:1004F0009BD60895A198A99A0EE400938A0003E57B
:1005000095E092D6A89A95E08FD6999B00938A00A1
:10051000A89895E089D6A19AA9980895A19AA99832
:1005200095E082D6A89A95E07FD6A89895E07CD6EB
:10053000A9980895A99801C0A99AA89595E074D69C
:10054000A89A95E071D6A89895E06ED60895A09ADD
:10055000A19A95E069D6A99895E066D6A89A95E003
:1005600063D6A99A95E060D60895002788271124BC
:100570000ABB0BBB00E60F0D07B903ED06B906B1C8
:10058000000006FBE6F3AA9529F015B1111EA8F7A5
:100590008395F3CF8093DF0100E300930F038695EB
:1005A00018F405E300930F0391D220920C033092CC
:1005B0000D032091DF0190E5C7D240FF07C02DE277
:1005C00020930C0320930D0320930F03089500E064
:1005D00007B906B90FEF0ABB0BBB089584E69AEF83
:1005E00023D68A95E1F700E326D087E19AEF1CD65F
:1005F0008A95E1F700E31FD098E716D600E31BD0F9
:1006000098E712D608E317D09AEF0ED60CE013D075
:100610009AEF0AD606E00FD023D0089500E80BD059
:10062000D3E0C0E110E1FBD500EC05D0D3E0C0E29F
:1006300010E1F5D51895AD9892E3F6D5AE9A0BBBBF
:1006400096EEF2D5AE9898ECEFD598ECEDD598EC07
:10065000EBD598ECE9D598ECE7D594E6E5D5089587
:1006600000E4E9DF0FE101D200E0FFD101E1FDD1BB
:1006700009E1FBD105E1F9D103E1F7D101E1F5D1C0
:1006800000E0F3D104E0F1D10EE0EFD105E1EDD1CE
:1006900004E0EBD104E0E9D104E0E7D104E0E5D1E6
:1006A00000E0E3D104E0E1D104E0DFD104E0DDD1FA
:1006B00004E0DBD105E1D9D10EE0D7D104E0D5D1FA
:1006C00000E0D3D10895089570FBF2F8A0D570939F
:1006D00063007432C0F3745270936300872F3091BB
:1006E000620033953736F0F03091CF013395309377
:1006F000CF012091C4013217A8F030E03093CF0130
:1007000030936200732F0F2D0078003839F00068A5
:10071000F02E9798969A0E942C0A04C09698979A61
:100720000F77F02E309362002091D50143FD24E62F
:100730003130F0F0320768F047FD089546FD089526
:10074000B39BC098B399B99A94980F2D0E7FF02E51
:10075000089547FD089546FD0895B4FEF1CFB39B7B
:10076000C09AB399B998949A0F2D0160F02E08950C
:10077000089500E20093700000937B0000937F00D7
:1007800000E50093710002E7009372000FE600930A
:10079000730004E60093740005E70093750003E618
:1007A000009376000093770009E6009378000FE647
:1007B000009379000EE600937A008091D50143FD05
:1007C00084E684D110927C0020927D0030927E00DD
:1007D00005E200937F0000E84BD1D0E0C0E710E1D4
:1007E0001ED5089500E200939000009391000093BD
:1007F00095000093960000939A0000939E0000934A
:100800009F0003E50093920001E6009393000CE63D
:10081000009394000AE2F1FC009396008091C001DD
:100820000EE200939800833670F48D3320F08CE351
:100830000EE3009395004AD1109296002092970003
:100840003092990005C00DE2009397000093990043
:1008500007E600939B000FE200939C000CE60093D8
:100860009D0000EC05D1D0E0C0E910E1D8D4089596
:1008700048600895477F08956894B3F808950F2D50
:100880000064F02EC4D476C10F2D0064F02EBFD4C6
:100890000EC20F2D0062F02E089500E8E9D0D3E0DB
:1008A000C0E010E1BCD421E0A4E60E949D0D80933D
:1008B000DF010E941307CFD0173E31F11F3DE1F158
:1008C000153FD1F0193FB1F21B3E91F21C3EE1F20F
:1008D000173FA9F21F3BE9F28F2D8F7DF82E1F37AE
:1008E000E1F21E3FC9F1123709F008950E949E00FF
:1008F0000895E894B3F8089511E121E0DED08F2D3A
:100900008D7FF82E4B7F089511E120E0D6D00F2D7A
:100910000260F02E44600895E093D10110E02E2F84
:10092000CCD012E221E0B1FE20E0C7D00F2D0F7B2A
:10093000F02E6DD4EAD40895A8950E94A00395984E
:1009400072E30F2D0C7EF02E62D402E091D0D2E043
:10095000C0EB10E164D4AFCF0F2D0064F02E57D45C
:10096000E091D10177246A30F0F3E091D10160E0A9
:10097000A89544FF95C6872D8F3072F6C4E154D4F4
:100980006AD01F3F09F077241B3F51F11F3709F44C
:10099000C3CF1F3E31F47724E39560E0E0350CF0DF
:1009A000E0E51D3F31F47724EA9560E0E13458F446
:1009B000E1E4143F19F47724E894B1F8163E19F4F1
:1009C00077246894B1F88E2F81D02092E9010EE24D
:1009D0000093EA013092EB010ED06431F0F3C8CFFE
:1009E000E093D10110E02E2F68D08FD447FDE2C5EF
:1009F00046FD6DC555C600E83BD0D2E0C0EA10E127
:100A00000ED400E20093E0010093E1010093E201C3
:100A10000093E3010093E4010093E5010093E801F2
:100A20000093EC010093ED010093EE010093EF01C0
:100A300001E050B253FC02E00093E30100E50093B3
:100A4000E60108E40093E70100EC12D0D1E0C0EE2B
:100A500010E1E5D3089500270ABB0BBBAB9800005B
:100A600019B30FEFAB9A0ABB08950AD0AD9A02C032
:100A700007D0AD98AE9A0BBB90E5D6D3AE9808954B
:100A80001F93AF9AAD9811271ABB1BBBAE9A0000FB
:100A900019B31078AE981030C9F71FEF1ABB1BBB03
:100AA000AD9AAF981F910895E199FECF00E00FBB7A
:100AB0001EBBE09A00002DB30895E199FECF00E03F
:100AC0000FBB1EBB2DBBE29AE19A08958F931124B0
:100AD00022243324843630F013948456843610F064
:100AE0001394FBCF8A3030F023948A508A3010F070
:100AF0002394FBCF382E20E3120E220E320E211546
:100B000011F420E2122E8F9108951124222433240F
:100B1000843130F013948451843110F01394FBCF5E
:100B2000823030F023948250823010F02394FBCF37
:100B3000813028F03394339433943394339400E326
:100B4000100E200E300E08952F939F9397FD0DC029
:100B500027FD03C0291B0CF404C041609F912F9115
:100B600008954E7F9F912F91089527FFFACF291B5B
:100B7000A4F7F7CFF091D201B091DD0160E07724C6
:100B80006A30F0F30E94AD030E940709A89523E0A4
:100B9000AB2F0E94EF0D8093DC018093C001A895DC
:100BA00022E0A7EE0E94EF0D08ED081B3091D20164
:100BB0000F0F0093D00143D04EDF1D3F61F01F3E69
:100BC00091F0153FB9F0173EE9F01F3719F1872D65
:100BD000823302F5D5CF7724FA9560E0F23010F435
:100BE000F2E0CECFCDCF7724F39560E0F63108F078
:100BF000F6E1C6CF7724BA95BA9560E0B23308F42F
:100C0000B2E3BECF7724B395B39560E0B43B08F070
:100C1000B4EBB6CFF093D201B093DD0115E02F2FE6
:100C20004CDF16E02B2F49DF0F2D0F7BF02EEFD27C
:100C30006CD308950F2D0F7BF02EE9D2089503E5B4
:100C40000093900001E6009391000CE6009392005F
:100C500003E4009393000EE20093960000939E003D
:100C600000E2009394000093980000939B00809111
:100C7000DC012CDF209295003092970000E5009374
:100C8000990008E600939A0003E400939B0080918A
:100C9000D0011CDF10929C0020929D0030929F009A
:100CA00000ECE6DED0E0C0E910E1B9D20895F091A1
:100CB000D801B091DB0160E077246A30F0F3C09A8C
:100CC000A895882720E0AB2F8AD78E528093D90130
:100CD000A895882721E0AF2F82D78C5386958695DB
:100CE0008093D6014BD00E942B051D3F61F01F3E23
:100CF000A1F0153FE1F0173E19F11F3751F1872D93
:100D00008233BAF5DACF7724FA95FA95FA9560E04E
:100D1000F63910F4F7E9D1CFD0CF7724F395F395D6
:100D2000F39560E0FA3F10F0FAEFC7CFC6CF772413
:100D3000BA95BA9560E0B83C10F4B9ECBECFBDCF1F
:100D40007724B395B39560E0BE3F10F0BDEFB5CF0B
:100D5000B4CFF093D801B093DB0114E02F2FADDEB8
:100D600017E02B2FAADE0F2D0F7BF02E50D2CDD205
:100D700008950F2D0F7BF02E4AD2089503E40093BF
:100D800090000CE60093910003E4009392000EE2C1
:100D90000093950000E20093930000939400009369
:100DA00097000093980000939B0000939C00809113
:100DB000D901ABDE02E50093990004E600939A00A6
:100DC00003E400939B0010929D0020929E003092BD
:100DD0009F008091D6017ADE209294003092960096
:100DE00000EC46DED0E0C0E910E119D208951124EC
:100DF0005EE9DFDA5FE9E3DAAA9529F0131ED0F79E
:100E00008395A895F7CF0895112450E922E0D1DA0F
:100E1000A8EC882751E9D3DAAA9529F0131ED0F758
:100E20008395A895F7CF8093DF0100E300930F032C
:100E3000869518F405E300930F0348DE20920C0317
:100E400030920D032091DF0190E57EDE40FF07C068
:100E50002DE220930C0320930D0320930F0308959C
:100E6000C79A58E20FD0C7988091D0018091620054
:100E700014D0C79808958CE310D0C79889E10DD09D
:100E8000C7980895509554BD4D7F03E005BDA895C2
:100E900041FFFDCF00E005BD089554E0F3DF3BD0F6
:100EA00087FDC79A87FFC79858E0ECDF34D086FDEE
:100EB000C79A86FFC79858E0E5DF2DD085FDC79A11
:100EC00085FFC79858E0DEDF26D084FDC79A84FFEF
:100ED000C79858E0D7DF1FD083FDC79A83FFC79814
:100EE00058E0D0DF18D082FDC79A82FFC79858E03B
:100EF000C9DF11D081FDC79A81FFC79858E0C2DFD2
:100F00000AD080FDC79A80FFC79858E0BBDFC7981A
:100F100058E2B8DF0895919800000000000000003A
:100F20000000919A089518951895189542601895A3
:100F30001895AFB6AF921F9310E01CBD1DBD739402
:100F400073956894B0F8109364001F91AF90AFBE92
:100F5000189518951895AFB6AF926395AF90AFBE40
:100F60001895189518951895189518951895189519
:100F7000189518951895189504E00EBF1FE51DBF2C
:100F800068D80FEFF02E43D129DB48DB70E07230D8
:100F9000F0F3D2E0C0E772E393E340E014E20E9492
:100FA00054052093C20118E27FDD253010F024E0C3
:100FB000322F2093C40118E280DD10E3120F0E944B
:100FC00054052395283C18F40E945D050AC020E0D2
:100FD0000E945D0530E1130F0E94540523950E9485
:100FE0005D0510E061DD90E5AFDD40FD2AE491E4B0
:100FF000ABDD40FF2AE410E060DD2093D10115E075
:1010000053DD94E1A1DD40FD2AE02093D20115E0FB
:1010100054DD8AE48093D00116E046DD95EB94DD43
:1010200040FD28E792E390DD40FF28E716E045DD2C
:101030002093DD0188E78093DC018093C00112E0FA
:1010400033DD95E181DD40FD2AE096E07DDD40FF66
:1010500028E02093D6012093D701A89514E024DD41
:101060009AEF72DD40FD28EC96E96EDD40FF28EC3A
:101070002093D801A89513E017DD94EC65DD40FDC1
:1010800024E990E361DD40FF24E92093D901209316
:10109000DA01A89517E008DD9EEF56DD40FD2DEE44
:1010A00098EC52DD40FF2DEE2093DB0111E0FCDCDB
:1010B00095E64ADD40FD2AE59AE046DD40FF2AE557
:1010C0002093D4012093D501A89580E081BD4427C9
:1010D00094980027009363000093620000936100DE
:1010E000F02E95D0959811E1DFDC20FB0EF417C0AF
:1010F00010E30E9454052395283C18F40E945D05D6
:101100000AC020E00E945D0530E1130F0E945405E3
:1011100023950E945D050F2D0260F02E446013E2BE
:101120000E94540520FBB2F810E1BEDC2093DE01E2
:1011300010E12091DE012395C0DC20FB1EF4F7F8BE
:10114000969A01C0979A6894B4F80E942C0A30E0ED
:101150003093CF013093620034E1732FB39B426030
:10116000B49B01C01DC000EC83DCC0EE10E157D081
:10117000959800E87DDCD2E0C0EC10E150D0A4DA14
:1011800046D014D4B99905C000EC72DCD2E0C0EDB1
:1011900004C000EC6DDCD2E0C0EE10E140D0E9CF3D
:1011A000A89500000000B0FEFBCFE894B0F883DB08
:1011B0000E94090AF4D244FF03C03BD0B6D002C05B
:1011C00011DBD7DA849B0CC0733050F04FD321E091
:1011D000A4E60E949D0D8093DF010E94130700008A
:1011E00073DA69DBA8950000A89530916200343667
:1011F00050F4313038F0B2FED3CFD8D347FD02C01F
:1012000005D4A895CDCF57DB0E94A003C9CFFBBA68
:10121000AC9800000000AC9A00000000089509910D
:1012200024DC1A95E1F70895A89500009A95E1F756
:10123000089500E50093700002E7009371000FE647
:101240000093720004E60093730000E200937400C0
:101250000093790000937C0000937D0000937E0052
:1012600000937F0001E40093750005E7009376008A
:1012700004E7009377000FE6009378000EE20093F6
:101280007E000DE200937D0000937F0047FD10C0BB
:1012900046FD0EC08091D50143FD84E617DC109217
:1012A0007500209276003092770005E20093780076
:1012B00000E500937A0008E600937B003091CF01AF
:1012C0003030E0F0309162003230C0F08091D001D7
:1012D000FDDB10927C0020927D0030927F00809197
:1012E000D001883758F000E200937C0005E40093B9
:1012F0007D0000937F000EE200937E0000E8B8DBE3
:10130000D0E0C0E710E18BDF0895A8950E942B057F
:101310001F3FD9F70FEF60E07724089500ECA8DBBA
:10132000D2E0C0EF10E17BDF0895F5FE02C071FF4F
:10133000F5CF03E50093900001E6009391000CE6E1
:10134000009392000EE20093960000939E0000E24C
:1013500000939300009394000093980000939C00E6
:101360008091C001833678F48D3320F08CE30EE356
:10137000009393000000AADB109294002092950045
:101380003092970005C00DE20093950000939700FE
:1013900000E50093990008E600939A0000E50093A9
:1013A0009B0047FF11C08091D60190DB00E20093C3
:1013B000990003E400939A000CE600939B002092AE
:1013C0009D0030929F001EC046FF13C08091D9013E
:1013D0009CDB00E20093990002E500939A0004E68A
:1013E00000939B0010929D0020929E0030929F00DF
:1013F00009C08091D1016ADB10929C0020929D006F
:1014000030929F0000EC34DBD0E0C0E910E107DF50
:10141000089500E92DDBD2E0C0E510E100DF872F61
:1014200055DB109247022092480230924902809187
:1014300062004CDB10924B0220924C0230924D0223
:101440008091CF0143DB30924F0200ED11DBD2E0FF
:10145000C0E410E1E4DE08952F932227022E122E1D
:10146000222E322EFFE1E0EC0AEFC8953496200CD4
:101470000BF433940A95C9F716D0E1E22E1659F40D
:10148000FEE13F1641F42BEF15E20E945D056894E2
:10149000B4F82F910895E894B4F82FEF15E20E9464
:1014A0005D052F910895222D16E20E945D05232DE2
:1014B00017E20E945D050895E093DA0113E02E2FF4
:1014C000FCDA0F2D0F7BF02EA2DE1FDF08956A30AD
:1014D000F0F3E091DA0160E0A895872D8F3062F794
:1014E0000E942B051F3F11F000E0702E1B3F09F1F9
:1014F0001F3709F4E1CF1F3E39F400E0702EE39569
:1015000060E0E33C08F0EAEA1D3F39F400E0702EA9
:10151000EA9560E0E03308F4E2E88E2FF6DA109204
:10152000E9012092EA013092EB010CD06431F0F332
:10153000D3CFE093DA0113E02E2FBFDA00E0702E54
:10154000E4DEAEC000E894DAD2E0C0EA10E167DE83
:1015500000E20093E1010093E2010093E3010093B4
:10156000E4010093E5010093381E0093EC01009321
:10157000400202E50093E60104E60093E70100EC77
:1015800077DAD1E0C0EE10E14ADE0895E093D701AA
:1015900012E02E2F92DA0F2D0F7BF02E38DEB5DE03
:1015A0000895E093D70112E02E2F87DAAEDE00E037
:1015B000702E76C06A30F0F3E091D70160E0A89514
:1015C000872D8F301AF70E942B05103011F000E0A4
:1015D000702E1B3F31F31F3709F4D8CF1F3E39F46B
:1015E00000E0702EE39560E0E4310CF0E4E11D3F93
:1015F00039F400E0702EEA9560E0E63008F4E6E0A9
:101600008E2F64DA2092E9010EE20093EA01309213
:10161000EB0103D06431F0F3D2CF00E829DAD2E055
:10162000C0EA10E1FCDD00E20093E1010093E20179
:101630000093E3010093E4010093E5010093E801C6
:101640000093EC010093ED010093EE010093EF0194
:101650000093400203E40093E6010CE60093E701E7
:1016600000EC06DAD1E0C0EE10E1D9DD0895E09398
:10167000D50111E02E2F21DA0F2D0F7BF02EC7DDC3
:1016800044DE0895E093D50111E02E2F16DAE091A3
:10169000C40100E0702E39DE09C30E949E00089547
:1016A0006A30F0F3E091D50160E0A895872D8F3086
:1016B000F2F60E942B051F3F11F000E0702E12374A
:1016C00061F31B3FF9F21F3709F4D1CF1F3E39F404
:1016D00000E0702EE39560E0E4360CF0E4E61D3F98
:1016E00039F400E0702EEA9560E0EA3098F4EAE020
:1016F0001C3F41F413E220E00E945D05E894B2F83B
:101700004F7B4F771E3E31F413E221E00E945D05CE
:101710006894B2F88E2FDAD91092E9012092EA018A
:101720003092EB0103D06431F0F3BFCF00E8A0D9D1
:10173000D2E0C0EA10E173DD00E20093E001009323
:10174000E1010093E2010093E4010093E5010093BD
:10175000E8010093ED010093EE010093EF01009387
:1017600040020093E3010EE4B2FE0093E30100E5C2
:101770000093E60102E70093E70105E20093EC0124
:1017800000EC76D9D1E0C0EE10E149DD0895009378
:10179000D0010F2D0F7EF02E959808950895A895ED
:1017A00022E0A7EE1CD20FE0801710F44F7E0895C0
:1017B000406130916200323088F308ED081B3091AF
:1017C000D201030F083718F7802F80D910925C02DE
:1017D00020925D0230925F028EE280935E0200935F
:1017E000D3018091D0010296081724F08A95809346
:1017F000D00106C0845080171CF083958093D001DF
:101800003091D0012091D1018BE538170CF024C024
:10181000909162008CE3981708F01EC0F5FC1CC084
:10182000977060B263FC0CC03091D0012091D1015F
:101830003395231B27FD10C0220F291768F011C014
:101840003091D0012091D1012395321B37FD04C086
:10185000330F391708F005C00F2D0F7EF02E959825
:1018600008950F2D0061F02E959A0895A89523E014
:10187000A091DD01B4D1F1FC880F082F0E9466050C
:101880001092540220925502309257020330D8F140
:10189000753021F40093DC010093C0018091DC01DC
:1018A00083958395081730F08A958093DC018093A7
:1018B000C00108C08450801728F083958093DC0114
:1018C0008093C0012091DF0194E03ED940FF13C016
:1018D00090E53AD940FD0FC08F2D8D7FF8FFFFFFB7
:104000004AFFFFFFFF0A78FFFFFFFFFFFFFFFFFFF1
:1040100019000101FFFFFFFFFFFFFFFFFFFFFFFF91
:10402000FFFF01FFFFFB211E04FFFFFFFFFFFFFF5C
:0540300016FFFFFF195F
:00000001FF
